{
  "_format": "hh-sol-artifact-1",
  "contractName": "WavePortal",
  "sourceName": "contracts/WavePortal.sol",
  "abi": [
    {
      "inputs": [],
      "stateMutability": "nonpayable",
      "type": "constructor"
    },
    {
      "inputs": [],
      "name": "getTotalWaves",
      "outputs": [
        {
          "internalType": "uint256",
          "name": "",
          "type": "uint256"
        }
      ],
      "stateMutability": "view",
      "type": "function"
    },
    {
      "inputs": [],
      "name": "wave",
      "outputs": [],
      "stateMutability": "nonpayable",
      "type": "function"
    }
  ],
  "bytecode": "0x608060405234801561001057600080fd5b5061003c6040518060600160405280603581526020016108d76035913961004160201b6101c01760201c565b6101c4565b6100dd816040516024016100559190610142565b6040516020818303038152906040527f41304fac000000000000000000000000000000000000000000000000000000007bffffffffffffffffffffffffffffffffffffffffffffffffffffffff19166020820180517bffffffffffffffffffffffffffffffffffffffffffffffffffffffff83818316178352505050506100e060201b60201c565b50565b60008151905060006a636f6e736f6c652e6c6f679050602083016000808483855afa5050505050565b600061011482610164565b61011e818561016f565b935061012e818560208601610180565b610137816101b3565b840191505092915050565b6000602082019050818103600083015261015c8184610109565b905092915050565b600081519050919050565b600082825260208201905092915050565b60005b8381101561019e578082015181840152602081019050610183565b838111156101ad576000848401525b50505050565b6000601f19601f8301169050919050565b610704806101d36000396000f3fe608060405234801561001057600080fd5b50600436106100365760003560e01c80636fe15b441461003b5780639a2cdc0814610045575b600080fd5b610043610063565b005b61004d610175565b60405161005a9190610570565b60405180910390f35b600160008082825461007591906105a7565b9250508190555060018060003373ffffffffffffffffffffffffffffffffffffffff1673ffffffffffffffffffffffffffffffffffffffff16815260200190815260200160002060008282546100cb91906105a7565b925050819055506101116040518060400160405280601381526020017f2573206d616e646f7520756d2073616c7665210000000000000000000000000081525033610259565b6101736040518060600160405280602281526020016106ad6022913933600160003373ffffffffffffffffffffffffffffffffffffffff1673ffffffffffffffffffffffffffffffffffffffff168152602001908152602001600020546102f5565b565b60006101b86040518060400160405280601c81526020017f54656d6f7320756d20746f74616c2064652025642073616c7665732100000000815250600054610394565b600054905090565b610256816040516024016101d491906104b0565b6040516020818303038152906040527f41304fac000000000000000000000000000000000000000000000000000000007bffffffffffffffffffffffffffffffffffffffffffffffffffffffff19166020820180517bffffffffffffffffffffffffffffffffffffffffffffffffffffffff8381831617835250505050610430565b50565b6102f1828260405160240161026f9291906104d2565b6040516020818303038152906040527f319af333000000000000000000000000000000000000000000000000000000007bffffffffffffffffffffffffffffffffffffffffffffffffffffffff19166020820180517bffffffffffffffffffffffffffffffffffffffffffffffffffffffff8381831617835250505050610430565b5050565b61038f83838360405160240161030d93929190610502565b6040516020818303038152906040527f07c81217000000000000000000000000000000000000000000000000000000007bffffffffffffffffffffffffffffffffffffffffffffffffffffffff19166020820180517bffffffffffffffffffffffffffffffffffffffffffffffffffffffff8381831617835250505050610430565b505050565b61042c82826040516024016103aa929190610540565b6040516020818303038152906040527f9710a9d0000000000000000000000000000000000000000000000000000000007bffffffffffffffffffffffffffffffffffffffffffffffffffffffff19166020820180517bffffffffffffffffffffffffffffffffffffffffffffffffffffffff8381831617835250505050610430565b5050565b60008151905060006a636f6e736f6c652e6c6f679050602083016000808483855afa5050505050565b610462816105fd565b82525050565b60006104738261058b565b61047d8185610596565b935061048d818560208601610639565b6104968161069b565b840191505092915050565b6104aa8161062f565b82525050565b600060208201905081810360008301526104ca8184610468565b905092915050565b600060408201905081810360008301526104ec8185610468565b90506104fb6020830184610459565b9392505050565b6000606082019050818103600083015261051c8186610468565b905061052b6020830185610459565b61053860408301846104a1565b949350505050565b6000604082019050818103600083015261055a8185610468565b905061056960208301846104a1565b9392505050565b600060208201905061058560008301846104a1565b92915050565b600081519050919050565b600082825260208201905092915050565b60006105b28261062f565b91506105bd8361062f565b9250827fffffffffffffffffffffffffffffffffffffffffffffffffffffffffffffffff038211156105f2576105f161066c565b5b828201905092915050565b60006106088261060f565b9050919050565b600073ffffffffffffffffffffffffffffffffffffffff82169050919050565b6000819050919050565b60005b8381101561065757808201518184015260208101905061063c565b83811115610666576000848401525b50505050565b7f4e487b7100000000000000000000000000000000000000000000000000000000600052601160045260246000fd5b6000601f19601f830116905091905056fe2573206a61206d616e646f752025642073616c7665287329206e6f20746f74616c21a2646970667358221220e51fcde1af72cf44d55515eff9d106c893bb592caa70cfd7291e7a83709e6def64736f6c6343000800003346616c61206169212120457520736f7520756d20636f6e747261746f206520657520736f7520696e74656c6967656e746521203b29",
  "linkReferences": {},
  "deployedLinkReferences": {}
}